{"abi":[{"type":"function","name":"balances","inputs":[{"name":"","type":"address","internalType":"address"}],"outputs":[{"name":"","type":"uint256","internalType":"uint256"}],"stateMutability":"view"},{"type":"function","name":"deposit","inputs":[],"outputs":[],"stateMutability":"payable"},{"type":"function","name":"getBalance","inputs":[],"outputs":[{"name":"","type":"uint256","internalType":"uint256"}],"stateMutability":"view"},{"type":"function","name":"hasWithdrawn","inputs":[{"name":"","type":"address","internalType":"address"}],"outputs":[{"name":"","type":"bool","internalType":"bool"}],"stateMutability":"view"},{"type":"function","name":"transfer","inputs":[{"name":"to","type":"address","internalType":"address"},{"name":"amount","type":"uint256","internalType":"uint256"}],"outputs":[],"stateMutability":"nonpayable"},{"type":"function","name":"withdraw","inputs":[],"outputs":[],"stateMutability":"nonpayable"}],"bytecode":{"object":"0x6080604052348015600e575f5ffd5b506108e98061001c5f395ff3fe608060405260043610610054575f3560e01c806312065fe01461005857806327e235e3146100825780633ccfd60b146100be5780635e2c19db146100d4578063a9059cbb14610110578063d0e30db014610138575b5f5ffd5b348015610063575f5ffd5b5061006c610142565b604051610079919061055a565b60405180910390f35b34801561008d575f5ffd5b506100a860048036038101906100a391906105d1565b610149565b6040516100b5919061055a565b60405180910390f35b3480156100c9575f5ffd5b506100d261015d565b005b3480156100df575f5ffd5b506100fa60048036038101906100f591906105d1565b6103aa565b6040516101079190610616565b60405180910390f35b34801561011b575f5ffd5b5061013660048036038101906101319190610659565b6103c7565b005b6101406104ee565b005b5f47905090565b5f602052805f5260405f205f915090505481565b5f5f5f3373ffffffffffffffffffffffffffffffffffffffff1673ffffffffffffffffffffffffffffffffffffffff1681526020019081526020015f205490505f81116101df576040517f08c379a00000000000000000000000000000000000000000000000000000000081526004016101d6906106f1565b60405180910390fd5b60015f3373ffffffffffffffffffffffffffffffffffffffff1673ffffffffffffffffffffffffffffffffffffffff1681526020019081526020015f205f9054906101000a900460ff1615610269576040517f08c379a000000000000000000000000000000000000000000000000000000000815260040161026090610759565b60405180910390fd5b5f3373ffffffffffffffffffffffffffffffffffffffff168260405161028e906107a4565b5f6040518083038185875af1925050503d805f81146102c8576040519150601f19603f3d011682016040523d82523d5f602084013e6102cd565b606091505b5050905080610311576040517f08c379a000000000000000000000000000000000000000000000000000000000815260040161030890610802565b60405180910390fd5b5f5f5f3373ffffffffffffffffffffffffffffffffffffffff1673ffffffffffffffffffffffffffffffffffffffff1681526020019081526020015f20819055506001805f3373ffffffffffffffffffffffffffffffffffffffff1673ffffffffffffffffffffffffffffffffffffffff1681526020019081526020015f205f6101000a81548160ff0219169083151502179055505050565b6001602052805f5260405f205f915054906101000a900460ff1681565b805f5f3373ffffffffffffffffffffffffffffffffffffffff1673ffffffffffffffffffffffffffffffffffffffff1681526020019081526020015f20541015610446576040517f08c379a000000000000000000000000000000000000000000000000000000000815260040161043d906106f1565b60405180910390fd5b805f5f3373ffffffffffffffffffffffffffffffffffffffff1673ffffffffffffffffffffffffffffffffffffffff1681526020019081526020015f205f828254610491919061084d565b92505081905550805f5f8473ffffffffffffffffffffffffffffffffffffffff1673ffffffffffffffffffffffffffffffffffffffff1681526020019081526020015f205f8282546104e39190610880565b925050819055505050565b345f5f3373ffffffffffffffffffffffffffffffffffffffff1673ffffffffffffffffffffffffffffffffffffffff1681526020019081526020015f205f8282546105399190610880565b92505081905550565b5f819050919050565b61055481610542565b82525050565b5f60208201905061056d5f83018461054b565b92915050565b5f5ffd5b5f73ffffffffffffffffffffffffffffffffffffffff82169050919050565b5f6105a082610577565b9050919050565b6105b081610596565b81146105ba575f5ffd5b50565b5f813590506105cb816105a7565b92915050565b5f602082840312156105e6576105e5610573565b5b5f6105f3848285016105bd565b91505092915050565b5f8115159050919050565b610610816105fc565b82525050565b5f6020820190506106295f830184610607565b92915050565b61063881610542565b8114610642575f5ffd5b50565b5f813590506106538161062f565b92915050565b5f5f6040838503121561066f5761066e610573565b5b5f61067c858286016105bd565b925050602061068d85828601610645565b9150509250929050565b5f82825260208201905092915050565b7f496e73756666696369656e742062616c616e63650000000000000000000000005f82015250565b5f6106db601483610697565b91506106e6826106a7565b602082019050919050565b5f6020820190508181035f830152610708816106cf565b9050919050565b7f416c72656164792077697468647261776e0000000000000000000000000000005f82015250565b5f610743601183610697565b915061074e8261070f565b602082019050919050565b5f6020820190508181035f83015261077081610737565b9050919050565b5f81905092915050565b50565b5f61078f5f83610777565b915061079a82610781565b5f82019050919050565b5f6107ae82610784565b9150819050919050565b7f5472616e73666572206661696c656400000000000000000000000000000000005f82015250565b5f6107ec600f83610697565b91506107f7826107b8565b602082019050919050565b5f6020820190508181035f830152610819816107e0565b9050919050565b7f4e487b71000000000000000000000000000000000000000000000000000000005f52601160045260245ffd5b5f61085782610542565b915061086283610542565b925082820390508181111561087a57610879610820565b5b92915050565b5f61088a82610542565b915061089583610542565b92508282019050808211156108ad576108ac610820565b5b9291505056fea2646970667358221220b93c93befe483c114f9ebe0cb64056c40e1b58d6a723d43095b2fde5c941578c64736f6c63430008210033","linkReferences":{}},"methodIdentifiers":{"balances(address)":"27e235e3","deposit()":"d0e30db0","getBalance()":"12065fe0","hasWithdrawn(address)":"5e2c19db","transfer(address,uint256)":"a9059cbb","withdraw()":"3ccfd60b"},"id":20}